:04000000FEEF7FF0A0
:10EB0200AC8E1200A08E1200948E12008C0E766EC5
:10EB1200000E756E0F0E746E300E3F015E13120002
:10EB22008C0E726E000E716E0F0E706EC00E3F0173
:10EB32005E13120000EE60F0080EEE6AE806FDE1D8
:10EB42005C6A5B6A0001E9EF77F08C0E7A6E000E68
:10EB5200796E0F0E786E3F015E51F30B04095E6F02
:10EB620012008C0E7E6E000E7D6E0F0E7C6E3F01CB
:10EB72005E51FC0B02095E6F1200010EAE6E000EBA
:10EB8200AD6E000EAF6E9B0EAB6E000EAA6E39011B
:10EB9200A495F00EAC6E1200010EA26E000EA16ED4
:10EBA200000EA36E9B0E9F6E000E9E6E3901A79102
:10EBB200F00EA06E1200010E966E000E956E000E03
:10EBC200976E9B0E936E000E926E3901A991F00E14
:10EBD200946E12003E01F851F30B0409F86FF889A4
:10EBE200C2803A014081C2824083C2844085C2868B
:10EBF20040873E01F88F1200550E3A01BF6FAA0EF0
:10EC0200BF6FBF910A0E116F090E126F0B0E086FC4
:10EC12000C0E096F550EBF6FAA0EBF6FBF81120097
:10EC2200FF0E0116030E02167AA81AEF76F01CEFF9
:10EC320076F023EF76F0060ED89001360236E82EF3
:10EC42001DEF76F00250796E600007F078FF120037
:10EC5200FF0E0116030E02167EA832EF76F034EF95
:10EC620076F03BEF76F0060ED89001360236E82EAB
:10EC720035EF76F002507D6E600007F07CFF1200E7
:10EC8200FF0E0116030E021676A84AEF76F04CEF3D
:10EC920076F053EF76F0060ED89001360236E82E63
:10ECA2004DEF76F00250756E600007F074FF1200AF
:10ECB200FF0E0116030E021672A862EF76F064EFE1
:10ECC20076F06BEF76F0060ED89001360236E82E1B
:10ECD20065EF76F00250716E600007F070FF12006F
:10ECE2003E01F881600007F0F1FEF881F8B17CEF97
:10ECF20076F07EEF76F077EF76F0F051046E036AED
:10ED0200EF510324056E000E0420066E05C001F0CB
:10ED120006C002F01200533454345A6E5A50D8A42A
:10ED220095EF76F097EF76F0A1EF76F0000E516E48
:10ED3200000E526E000E536E000E546E0EEF77F000
:10ED420051C055F052C056F053C057F054C058F05D
:10ED5200200EB1EF76F0D8905832573256325532F3
:10ED6200E82EACEF76F05550596E538EFF0E5116C9
:10ED7200FF0E5216FF0E5316000E5416960E5A5ED2
:10ED82005ABEC8EF76F0C6EF76F0DEEF76F05A5054
:10ED9200800A970FD8B0D0EF76F0D2EF76F0D4EFAA
:10EDA20076F097EF76F0D890543253325232513295
:10EDB2005A3ED4EF76F0F6EF76F01F0E5A64E4EF87
:10EDC20076F0E6EF76F0EEEF76F097EF76F0D89009
:10EDD20051365236533654365A065A50D8A4F4EFA6
:10EDE20076F0F6EF76F0E8EF76F05950D8B4FCEF13
:10EDF20076F0FEEF76F006EF77F0541E531E521EA9
:10EE0200516C000E52225322542251C051F052C072
:10EE120052F053C053F054C054F01200096E09501E
:10EE2200D8B416EF77F018EF77F03AEF77F004BE28
:10EE32001FEF77F01DEF77F03AEF77F001C005F0A2
:10EE420002C006F003C007F004C008F0051E061E4B
:10EE5200071E081E052A000E06220722082205C0E8
:10EE62000BF006C00CF007C00DF008C00EF042EF28
:10EE720077F001C00BF002C00CF003C00DF004C02B
:10EE82000EF00150021003100410D8A44BEF77F0DB
:10EE92004DEF77F057EF77F0000E016E000E026E25
:10EEA200000E036E000E046EE8EF77F0960E0A6E07
:10EEB20061EF77F00A2AD8900E320D320C320B3203
:10EEC200000E0B14056E000E0C14066E000E0D14CF
:10EED200076EFE0E0E14086E05500610071008107D
:10EEE200D8A476EF77F078EF77F05BEF77F086EFE4
:10EEF20077F00A2A010E0B26000E0C220D220E229A
:10EF0200D8900E320D320C320B32000E0B14056EFD
:10EF1200000E0C14066E000E0D14076EFF0E0E147A
:10EF2200086E0550061007100810D8A49BEF77F062
:10EF32009DEF77F07AEF77F0A5EF77F00A06D89099
:10EF42000B360C360D360E360DBEAAEF77F0ACEF4F
:10EF520077F0B4EF77F0020E0A60B2EF77F0B4EF19
:10EF620077F09FEF77F00AB0B9EF77F0BBEF77F069
:10EF7200BCEF77F00D9ED8900A320AC005F0066AFF
:10EF8200076A086A05C008F0076A066A056A05503A
:10EF92000B1206500C1207500D1208500E12095097
:10EFA200D8B4D6EF77F0D8EF77F0E0EF77F004BE81
:10EFB200DFEF77F0DDEF77F0E0EF77F00E8E0BC04A
:10EFC20001F00CC002F00DC003F00EC004F01200FC
:10EFD200EBEC75F0BEEC75F0CDEC75F0DCEC75F099
:10EFE20081EC75F083EC75F085EC75F0FDEC75F055
:10EFF200A6EC75F0000E026E100E016E11EC76F0AA
:10F00200B2EC75F0000E026E100E016E29EC76F075
:10F0120087EC75F0000E026E100E016E41EC76F078
:10F0220091EC75F0000E026E100E016E59EC76F046
:10F03200000ECC6E000E3A01606F000EC46E000E20
:10F04200506F000EC36E000ECB6E000E026E000EED
:10F05200016E71EC76F001C068F002C069F0000E3A
:10F06200026E010E016E71EC76F001C06AF002C010
:10F072006BF0000E026E020E016E71EC76F001C0B2
:10F082006CF002C06DF0000E026E030E016E71ECA8
:10F0920076F001C06EF002C06FF0000E456E000EF9
:10F0A200466E800E476E410E486E000E2C6E000EAC
:10F0B2002D6E780E2E6E420E2F6E000E136E000E07
:10F0C200146E800E156E450E166E68C001F069C092
:10F0D20002F0000E02BEFF0E036E046E010E0FEC74
:10F0E20077F001C00FF002C010F003C011F004C0AD
:10F0F20012F0AAEC79F00FC028F010C029F011C06C
:10F102002AF012C02BF077EC7BF028C041F029C026
:10F1120042F02AC043F02BC044F09EEC7DF041C087
:10F1220051F042C052F043C053F044C054F08CEC52
:10F1320076F051C066F052C067F0000E456E000EC8
:10F14200466E800E476E410E486E000E2C6E000E0B
:10F152002D6E780E2E6E420E2F6E000E136E000E66
:10F16200146E800E156E450E166E6AC001F06BC0ED
:10F1720002F0000E02BEFF0E036E046E010E0FECD3
:10F1820077F001C00FF002C010F003C011F004C00C
:10F1920012F0AAEC79F00FC028F010C029F011C0CB
:10F1A2002AF012C02BF077EC7BF028C041F029C086
:10F1B20042F02AC043F02BC044F09EEC7DF041C0E7
:10F1C20051F042C052F043C053F044C054F08CECB2
:10F1D20076F051C064F052C065F0000E456E000E2C
:10F1E200466E800E476E410E486E000E2C6E000E6B
:10F1F2002D6E780E2E6E420E2F6E000E136E000EC6
:10F20200146E800E156E450E166E6CC001F06DC048
:10F2120002F0000E02BEFF0E036E046E010E0FEC32
:10F2220077F001C00FF002C010F003C011F004C06B
:10F2320012F0AAEC79F00FC028F010C029F011C02A
:10F242002AF012C02BF077EC7BF028C041F029C0E5
:10F2520042F02AC043F02BC044F09EEC7DF041C046
:10F2620051F042C052F043C053F044C054F08CEC11
:10F2720076F051C062F052C063F0000E456E000E8F
:10F28200466E800E476E410E486E000E2C6E000ECA
:10F292002D6E780E2E6E420E2F6E000E136E000E25
:10F2A200146E800E156E450E166E6EC001F06FC0A4
:10F2B20002F0000E02BEFF0E036E046E010E0FEC92
:10F2C20077F001C00FF002C010F003C011F004C0CB
:10F2D20012F0AAEC79F00FC028F010C029F011C08A
:10F2E2002AF012C02BF077EC7BF028C041F029C045
:10F2F20042F02AC043F02BC044F09EEC7DF041C0A6
:10F3020051F042C052F043C053F044C054F08CEC70
:10F3120076F051C060F052C061F066C001F067C083
:10F3220002F011EC76F064C001F065C002F029EC45
:10F3320076F062C001F063C002F041EC76F060C08A
:10F3420001F061C002F059EC76F026EF78F0FEEFA2
:10F352007FF01250800B1F6E12501224266E11AED7
:10F36200B5EF79F0B7EF79F0B8EF79F02680265053
:10F37200D8B4BEEF79F0C0EF79F0D5EF79F0262856
:10F38200D8A4C6EF79F0C8EF79F0D0EF79F0000E8B
:10F392000F6E000E106E000E116E000E126E118EA8
:10F3A200000E126EDDEF79F0000E0F6E000E106E81
:10F3B200000E116E000E126E1650800B1F1A1650A0
:10F3C2001624276E15AEE8EF79F0EAEF79F0EBEF4D
:10F3D20079F027802750D8B4F1EF79F0F3EF79F084
:10F3E20008EF7AF02728D8A4F9EF79F0FBEF79F04B
:10F3F20003EF7AF0000E136E000E146E000E156EFF
:10F40200000E166E158E000E166E10EF7AF0000EBC
:10F41200136E000E146E000E156E000E166E135053
:10F42200141015101610D8A419EF7AF01BEF7AF009
:10F4320033EF7AF0000E0F6E000E106E000E116E9A
:10F44200000E126E800E11127F0E12121F50121237
:10F452000FC00FF010C010F011C011F012C012F066
:10F4620076EF7BF02650D8A439EF7AF03BEF7AF0B2
:10F4720045EF7AF0000E0F6E000E106E000E116E48
:10F48200000E126E76EF7BF0275026C017F0186A36
:10F49200175E000E185A7F0E1724206E000E1820D9
:10F4A200216E0FC01BF010C01CF011C01DF012C065
:10F4B2001EF0000E0F6E000E106E000E116E000E8A
:10F4C200126E000E226E000E236E000E246E000ECF
:10F4D200256E000E276EA6EF7AF02750D8B474EF8F
:10F4E2007AF076EF7AF08DEF7AF0D8901B361C36F0
:10F4F2001D361E36D8900F3610361136123625AE0E
:10F5020085EF7AF087EF7AF088EF7AF00F80D89063
:10F51200223623362436253613501B5C14501C58D1
:10F5220015501D5816501E58D8A09AEF7AF09CEF2D
:10F532007AF0A5EF7AF0258C13501B5E14501C5AFA
:10F5420015501D5A16501E5A272A190E2764ACEF61
:10F552007AF0AEEF7AF06EEF7AF01B501C101D10AD
:10F562001E10D8B4B7EF7AF0B9EF7AF0D1EF7AF093
:10F572002280D1EF7AF0D8900F361036113612363B
:10F5820025AEC6EF7AF0C8EF7AF0C9EF7AF00F80B5
:10F59200D89022362336243625362006D8A02106D6
:10F5A20011AED6EF7AF0D8EF7AF0BCEF7AF0000E17
:10F5B200276E25AEDFEF7AF0E1EF7AF005EF7BF010
:10F5C200FF0E2214176EFF0E2314186EFF0E241462
:10F5D200196E7F0E25141A6E1750181019101A1072
:10F5E200D8B4F6EF7AF0F8EF7AF0FCEF7AF0010E89
:10F5F200276E05EF7BF00FA001EF7BF003EF7BF0AE
:10F6020005EF7BF0F8EF7AF02750D8B40BEF7BF0E0
:10F612000DEF7BF031EF7BF0010E0F26000E102272
:10F622001122122212A018EF7BF01AEF7BF031EFB9
:10F632007BF00FC017F010C018F011C019F012C003
:10F642001AF01A341A3219321832173217C00FF060
:10F6520018C010F019C011F01AC012F0204A212A65
:10F6620021BE3CEF7BF0215008E12028D8A03CEFDE
:10F672007BF03EEF7BF049EF7BF0000E216E2068BD
:10F68200000E0F6E000E106E000E116E000E126E46
:10F6920021BE56EF7BF0215006E12004D8B054EF92
:10F6A2007BF056EF7BF064EF7BF0000E216E000ED4
:10F6B200206E000E0F6E000E106E000E116E000E08
:10F6C200126E000E1F6E20C026F026A06BEF7BF09C
:10F6D2006DEF7BF070EF7BF0118E71EF7BF0119E7E
:10F6E200D8902630126E27EF7AF012002B50800B42
:10F6F200346E2B502B243A6E2AAE82EF7BF084EFCD
:10F702007BF085EF7BF03A803A50D8B48BEF7BF0F8
:10F712008DEF7BF0A0EF7BF03A28D8A493EF7BF03B
:10F7220095EF7BF09DEF7BF0000E286E000E296EA8
:10F73200000E2A6E000E2B6E2A8EA8EF7BF0000EB2
:10F74200286E000E296E000E2A6E000E2B6E2F50B0
:10F75200800B341A2F502F24396E2EAEB3EF7BF06C
:10F76200B5EF7BF0B6EF7BF039803950D8B4BCEFFF
:10F772007BF0BEEF7BF0D1EF7BF03928D8A4C4EF49
:10F782007BF0C6EF7BF0CEEF7BF0000E2C6E000E0E
:10F792002D6E000E2E6E000E2F6E2E8ED9EF7BF088
:10F7A200000E2C6E000E2D6E000E2E6E000E2F6EB1
:10F7B2003950D8B4DFEF7BF0E1EF7BF0E9EF7BF07B
:10F7C2003A50D8A4E7EF7BF0E9EF7BF0F3EF7BF060
:10F7D200000E286E000E296E000E2A6E000E2B6E91
:10F7E2009DEF7DF02E5028026F00CCFF3FF06F009E
:10F7F200D0FF40F03F50356E366A376A386A405063
:10F802003B6E3C6A3D6A3E6A2D5029026F00CCFF76
:10F812003FF06F00D0FF40F03F503526000E3622F9
:10F822003722382240503B26000E3C223D223E2207
:10F832002C502A026F00CCFF3FF06F00D0FF40F047
:10F842003F503526000E36223722382240503B26C2
:10F85200000E3C223D223E2237C038F036C037F03F
:10F8620035C036F0356A2C5029026F00CCFF3FF0CC
:10F872006F00D0FF40F03F50352640503622000E38
:10F882003722000E38222D5028026F00CCFF3FF0A5
:10F892006F00D0FF40F03F50352640503622000E18
:10F8A2003722000E382237C038F036C037F035C064
:10F8B20036F0356A2C5028026F00CCFF3FF06F0003
:10F8C200D0FF40F03F50352640503622000E3722FE
:10F8D200000E38222E5029026F00CCFF3FF06F003D
:10F8E200D0FF40F03F503B2640503C22000E3D22CC
:10F8F200000E3E222D502A026F00CCFF3FF06F0017
:10F90200D0FF40F03F503B2640503C22000E3D22AB
:10F91200000E3E222E502A026F00CCFF3FF06F00F5
:10F92200D0FF40F03F50306E4050316E326A336A41
:10F9320032C033F031C032F030C031F0306A305072
:10F942003B2631503C2232503D2233503E2235C0BC
:10F9520030F036C031F037C032F038C033F0190E13
:10F96200B8EF7CF0D8903332323231323032E82E76
:10F97200B3EF7CF030503B2631503C2232503D22D6
:10F9820033503E2237C038F036C037F035C036F03B
:10F99200356A39503AC030F0316A3026000E3122D1
:10F9A200820E30243F6EFF0E3120406EEEEF7CF06F
:10F9B200D8903B363C363D363E3638AEE3EF7CF0EF
:10F9C200E5EF7CF0E6EF7CF03B80D89035363636BA
:10F9D200373638363F06D8A040063DAEF3EF7CF00E
:10F9E200F5EF7CF0D9EF7CF0000E396E38AEFCEF0B
:10F9F2007CF0FEEF7CF022EF7DF0FF0E3514306ECE
:10FA0200FF0E3614316EFF0E3714326E7F0E38142D
:10FA1200336E3050311032103310D8B413EF7DF002
:10FA220015EF7DF019EF7DF0010E396E22EF7DF0BA
:10FA32003BA01EEF7DF020EF7DF022EF7DF015EF71
:10FA42007DF03950D8B428EF7DF02AEF7DF04EEFEB
:10FA52007DF0010E3B26000E3C223D223E223EA0BE
:10FA620035EF7DF037EF7DF04EEF7DF03BC030F0AB
:10FA72003CC031F03DC032F03EC033F0333433325B
:10FA820032323132303230C03BF031C03CF032C021
:10FA92003DF033C03EF03F4A402A40BE59EF7DF070
:10FAA200405008E13F28D8A059EF7DF05BEF7DF090
:10FAB20065EF7DF0000E3B6E000E3C6E800E3D6EDB
:10FAC2007F0E3E6E93EF7DF040BE72EF7DF04050B0
:10FAD20006E13F04D8B070EF7DF072EF7DF07EEF6B
:10FAE2007DF0000E3B6E000E3C6E000E3D6E000E71
:10FAF2003E6E000E346E93EF7DF03FC03AF0FF0E83
:10FB02003B16FF0E3C167F0E3D16000E3E163AA027
:10FB12008DEF7DF08FEF7DF090EF7DF03D8ED890F0
:10FB22003A303E6E34503E123BC028F03CC029F0C1
:10FB32003DC02AF03EC02BF012004450800B4D6EA7
:10FB4200445044244F6E43AEA9EF7DF0ABEF7DF0FD
:10FB5200ACEF7DF04F804F50D8B4B2EF7DF0B4EFF0
:10FB62007DF0C9EF7DF04F28D8A4BAEF7DF0BCEF4D
:10FB72007DF0C4EF7DF0000E416E000E426E000E6D
:10FB8200436E000E446E438E000E446ED1EF7DF044
:10FB9200000E416E000E426E000E436E000E446E69
:10FBA2004850800B4E6E4D504E18D8B4DBEF7DF0AE
:10FBB200DDEF7DF0DEEF7DF04D8C485048244E6E37
:10FBC20047AEE6EF7DF0E8EF7DF0E9EF7DF04E80A5
:10FBD2004E50D8B4EFEF7DF0F1EF7DF006EF7EF0FE
:10FBE2004E28D8A4F7EF7DF0F9EF7DF001EF7EF01B
:10FBF200000E456E000E466E000E476E000E486EF9
:10FC0200478E000E486E0EEF7EF0000E456E000E1F
:10FC1200466E000E476E000E486E4F504E5CD8B0D6
:10FC220015EF7EF017EF7EF03EEF7EF04DAC1CEF4D
:10FC32007EF01EEF7EF020EF7EF0800E4D1A4FC058
:10FC420050F04EC04FF050C04EF041C050F045C091
:10FC520041F050C045F042C050F046C042F050C0A2
:10FC620046F043C050F047C043F050C047F044C094
:10FC720050F048C044F050C048F0000E506E4F5053
:10FC82004EC049F04A6A495E000E4A5A4ABE53EFD4
:10FC92007EF04A5009E11A0E495CD8A053EF7EF07B
:10FCA20055EF7EF08CEF7EF041504210431044102D
:10FCB200D8A45EEF7EF061EF7EF0010E62EF7EF07F
:10FCC200000E506E000E416E000E426E000E436E2C
:10FCD200000E446E4EC04FF095EF7EF050A074EFD0
:10FCE2007EF076EF7EF07CEF7EF0D8905030010906
:10FCF200506E7EEF7EF0D890503241A083EF7EF0BE
:10FD020085EF7EF086EF7EF0508E443444324332EB
:10FD1200423241324F2A4E504F5CD8A093EF7EF0D0
:10FD220095EF7EF06FEF7EF04DBC9AEF7EF09CEF88
:10FD32007EF0DCEF7EF04F50D8A4A2EF7EF0A4EF6D
:10FD42007EF0AEEF7EF0000E416E000E426E000EAF
:10FD5200436E000E446EFDEF7FF045504126465043
:10FD62004222475043224850442244A0BBEF7EF037
:10FD7200BDEF7EF069EF7FF050A0C2EF7EF0C4EFDE
:10FD82007EF0CAEF7EF0D89050300109506ECCEF71
:10FD92007EF0D890503241A0D1EF7EF0D3EF7EF0CA
:10FDA200D4EF7EF0508E44344432433242324132F8
:10FDB2004F2A69EF7FF04550415C46504258475008
:10FDC20043584450800A496E4850800A4958D8B076
:10FDD200EDEF7EF0EFEF7EF01AEF7FF04150455CE1
:10FDE200496E425046584A6E435047584B6E4450F3
:10FDF20048584C6EFF0E4924416EFF0E4A20426E57
:10FE0200FF0E4B20436EFF0E4C20446E800E4D1AA7
:10FE1200506C5050D8A410EF7FF012EF7FF022EF19
:10FE22007FF0010E4126000E42224322442222EF9D
:10FE32007FF04550415E4650425A4750435A48501F
:10FE4200445A4150421043104410D8A42BEF7FF083
:10FE52002DEF7FF062EF7FF05050D8A433EF7FF0A8
:10FE620035EF7FF062EF7FF0000E416E000E426EC2
:10FE7200000E436E000E446EFDEF7FF0D8904136C7
:10FE820042364336443650AE49EF7FF04BEF7FF0B7
:10FE92004CEF7FF0418050A051EF7FF053EF7FF0A5
:10FEA20057EF7FF0D880503659EF7FF0D890503618
:10FEB2004F50D8B45FEF7FF061EF7FF062EF7FF0D9
:10FEC2004F0643AE67EF7FF069EF7FF03FEF7FF0C1
:10FED200000E4E6E50AE70EF7FF072EF7FF08AEF41
:10FEE2007FF050C049F07F0E4916D8B47BEF7FF007
:10FEF2007DEF7FF081EF7FF0010E4E6E8AEF7FF093
:10FF020041A086EF7FF088EF7FF08AEF7FF07DEFF0
:10FF12007FF04E50D8B490EF7FF092EF7FF0BDEFBC
:10FF22007FF0010E4126000E42224322442244A0C9
:10FF32009DEF7FF09FEF7FF0BDEF7FF041C049F072
:10FF420042C04AF043C04BF044C04CF04C344C32F7
:10FF52004B324A32493249C041F04AC042F04BC0AA
:10FF620043F04CC044F04F28D8B4BAEF7FF0BCEF56
:10FF72007FF0BDEF7FF04F2A4F28D8B4C3EF7FF058
:10FF8200C5EF7FF0CDEF7FF04F50D8A4CBEF7FF0DD
:10FF9200CDEF7FF0DFEF7FF0000E416E000E426E7C
:10FFA200000E436E000E446E4F50D8A4DBEF7FF07C
:10FFB200DDEF7FF0DFEF7FF0000E4D6E4FA0E4EF3C
:10FFC2007FF0E6EF7FF0E9EF7FF0438EEAEF7FF01C
:10FFD200439ED8904F30446E4DAEF2EF7FF0F4EF77
:10FFE2007FF0F5EF7FF0448E41C041F042C042F015
:0EFFF20043C043F044C044F012009BEF75F092
:020000040020DA
:10000000FF0FFF0FFF0FFF0FFF0FFF0FFF0FFF0F80
:020000040030CA
:0A000000F8FFFFFF9FFFFFFFFFFF67
:00000001FF
